:020000040800F2
:10000000500900209D180008490100084B01000814
:100010004F010008530100085701000800000000CC
:100020000000000000000000000000005B0100086C
:100030005D010008000000005F0100086101000888
:10004000B7180008B7180008B7180008B718000854
:10005000B7180008B7180008B7180008B718000844
:10006000B7180008B7180008B7180008B718000834
:10007000B7180008B7180008B7180008B718000824
:10008000B7180008B7180008B7180008B718000814
:10009000B7180008B7180008B7180008B718000804
:1000A000B7180008B7180008B7180008B7180008F4
:1000B000B71800082144000891530008B718000839
:1000C000B7180008B7180008B7180008B7180008D4
:1000D000B7180008CB340008AD4C0008B14E00083A
:1000E000B7180008B7180008B7180008B7180008B4
:1000F000B7180008B7180008B7180008B7180008A4
:10010000B7180008B71800088F580008B71800087B
:100110006D57000869560008B7180008B71800089E
:10012000B7180008B7180008B7180008B718000873
:10013000DFF810D005F0B2FE004800475D09000866
:10014000AFF3008050090020704700BFFEE700BFFA
:10015000FEE700BFFEE700BFFEE77047704770474D
:10016000704700000CB50020019000906C480068BA
:1001700040F480306A49086000BF6948006800F4B4
:10018000003000900198401C0190009818B9019827
:10019000B0F5A06FF1D16248006800F4003010B1F2
:1001A0000120009001E0002000900098012843D138
:1001B0005C48006840F010005A4908600846006832
:1001C00020F0030008600846006840F00200086064
:1001D00053484068524948600846406848600846AD
:1001E000406840F4806048600846406820F47C1015
:1001F00048600846406840F4E810486008460068D7
:1002000040F08070086000BF4548006800F0007052
:100210000028F9D04248406820F003004049486077
:100220000846406840F00200486000BF3C48406813
:1002300000F00C000828F9D10CBD10B5FFF792FFB3
:1002400010BD10B53648006840F001003449086020
:10025000084640683449084031494860084600680B
:10026000324908402E4908600846006820F4802082
:1002700008600846406820F4FE0048604FF41F0004
:100280008860FFF7DAFF4FF000602949086010BD71
:1002900010B5002100200022214B5B6803F00C0107
:1002A00021B1042906D0082928D107E0214B224C8E
:1002B000236027E01F4B204C236023E0184B5B6832
:1002C00003F47010164B5B6803F48032022303EBD7
:1002D000904022B9194B4343174C23600DE0104B5B
:1002E0005B6803F4003323B1144B4343124C236087
:1002F00003E0104B4343104C236003E00D4B0E4CC6
:10030000236000BF00BF064B5B68C3F303130C4CB4
:10031000E15C094B1B68CB40074C236010BD00001B
:1003200000100240002002400000FFF8FFFFF6FE30
:1003300008ED00E000127A000000002000093D00F6
:10034000040000203220FE4908800020FD4908609A
:10035000FD490860FD490860FD490860FD490880C5
:10036000FD490860FD490860FD490860FD490860D5
:10037000FD4908600120FD49086048608860C86048
:100380000020FB490860FB490860FB490860012028
:10039000FA4908700020FA490870FA490870FA49C9
:1003A0000860FA490860FA490860FA490860FA49A1
:1003B0000860FA490860401EF94908600020F949C0
:1003C000086070472DE9F84304460D4616461F465F
:1003D0004FF0010804E0022003F01CFE08F10108C0
:1003E000B8F1050FF7DD3146284604F0B8FE10B12C
:1003F0000FB9012000E0002000EB040900203B467B
:10040000324629460090484604F098FF00BF04F0A9
:10041000B8FF0028FBD0BDE8F8832DE9F843044677
:100420000D4616461F464FF0000804E0012003F079
:100430003EFE08F10108B8F1050FF7DB314628460A
:1004400004F08DFE10B10FB9012000E0002000EB98
:10045000040903203B46324629460090484604F0F2
:100460006DFF00BF04F08DFF0028FBD0BDE8F883CE
:10047000F8B504460D4616464FF0FF3000233246CD
:1004800029460090601C04F059FF00BF012003F0D2
:100490000BFF03E004F075FF00B103E0B7480078FC
:1004A0000028F7D000BF04F06CFF0028EED003F066
:1004B000A1FFBD4800685A30BB4908600846006883
:1004C000B42804DD08460068A0F5B4700860F8BDE3
:1004D0002DE9F84304460D4616461F464FF0000826
:1004E00004E0022003F0B0FD08F10108B8F1050FA7
:1004F000F7DB3146284604F032FE10B10FB9012077
:1005000000E0002000EB040901203B46324629466A
:100510000090484604F012FF00BF04F032FF0028AC
:10052000FBD0BDE8F8832DE9F84304460D46164696
:100530001F464FF0010804E0012003F06BFD08F1B5
:100540000108B8F1050FF7DD3146284604F007FE33
:1005500010B10FB9012000E0002000EB04090020D9
:100560003B46324629460090484604F0E7FE00BF6D
:1005700004F007FF0028FBD0BDE8F8832DE9FF4F0A
:100580008DB081468A4693461A9ECDF82090CDF8CC
:1005900024A0CDF828B010980B908448009084488F
:1005A000019002908149039182480490824905910B
:1005B000084606907F49079100247BE008A850F880
:1005C0002400401C00B974E006274FF0000800200A
:1005D0000C9001250BE02946204604F0C0FD28B10F
:1005E000BD4200DA2F46454500DDA8466D1C052DAD
:1005F000F1DD08A850F82400B84222DD18E05DF8CB
:1006000034103C20884709E03946204604F0A7FD15
:1006100018B11EB16948007800B103E0574800786E
:100620000028F1D000BF1EB16448007800B105E099
:100630003946204604F093FD0028E0D100BF012098
:100640000C9008A850F82400404529DA1AE06846C2
:1006500000EBC40041683C20884709E04146204641
:1006600004F07DFD18B11EB15448007800B103E0DC
:10067000424800780028F1D000BF1EB14F480078F2
:1006800000B10AE04146204604F069FD0028DED1B1
:100690001EB14A4800780028D9D100BF01200C9033
:1006A0000C9800B1641E1EB14448007800B103E00C
:1006B00000BF641C032C81DD00BFFFF743FE11B0B7
:1006C000BDE8F08F2DE9F047054600BF1DB13B485E
:1006D000007800B1C3E000203949086000BF384805
:1006E00000680028FBD03749B1F9040005F0A3FAEF
:1006F00080464FF08E4105F07FF90746324905F0FC
:1007000049F906462848006805F095FA81462F48C1
:100710000168304605F038F98246494605F034F95B
:1007200080462B4905F0DEF8074605F09AFA4FF4AB
:10073000B47190FBF1F201FB1204214625A04BE0BD
:100740006000002064000020680000206C00002091
:100750007000002074000020780000207C00002041
:100760008000002084000020880000208C000020F1
:100770009C000020A0000020A4000020A800002071
:10078000A9000020AA000020C0000020C400002012
:10079000C8000020CC000020D0000020D4000020A1
:1007A000D8000020DC000020200000204542000886
:1007B00077420008F5410008C1410008010100200E
:1007C000F000002034000020000034433C000020F2
:1007D0000000B44325640A0005F082FBB42C01DD5F
:1007E000A4F5B474002C06DD4FF6FF7101EA440055
:1007F00003F0AEFD08E0002C06DA61424FF6FF720E
:1008000002EA410003F08CFD06E02DB1F9480078C2
:1008100010B103F0EFFD03E0F74800780128F4D1B0
:1008200000BFF648006805F006FA8146F448016802
:10083000304605F0A9F88246494605F0A5F88046FD
:10084000F04905F04FF8074605F00BFA4FF4B47184
:1008500090FBF1F201FB120000287FF437AF00BFDC
:10086000BDE8F08730B502460B467BB100210AE0B7
:10087000E548445C501EE54D285C844201D10846A1
:1008800030BD481CC1B20329F2DB0FE003210BE0AD
:10089000DD48445CDD4DD01C285C844202D1C81E7A
:1008A000C0B2EDE7481CC1B20629F1DB0020E7E742
:1008B0002DE9F84304460D4616461F464FF0000842
:1008C00004E0012003F0DAFB08F10108B8F1050F9C
:1008D000F7DB3146284604F042FC10B10FB9012085
:1008E00000E0002000EB040902203B463246294686
:1008F0000090484604F022FD00BF04F042FD0028AD
:10090000FBD0BDE8F8832DE9F84304460D461646B2
:100910001F464FF0000804E0012003F095FB08F1AA
:100920000108B8F1050FF7DB3146284604F017FC43
:1009300010B10FB9012000E0002000EB04090120F4
:100940003B46324629460090484604F0F7FC00BF7B
:1009500004F017FD0028FBD0BDE8F883F8B502F0DD
:10096000AFFC02F02DFE03F0DFFF4FF4165002F053
:1009700056FD4FF4165004F041F94FF4E13004F005
:100980000FFA04F0ABFA04F0C9FB04F09FFE4FF439
:10099000E13004F0ABFD4FF4FA7002F0CEFC01211F
:1009A0004FF4E13004F007FE012002F0EAFC984920
:1009B000B1F9040005F03FF906464FF08E4105F00D
:1009C0001BF80546934904F0E5FF8D4908600120B6
:1009D00003F06AFF08B10020F8BD0121002004F0F7
:1009E00097F80023032211460120FFF79CFD002306
:1009F000032219460220FFF75BFF01230322002197
:100A00001846FFF7DFFC04F096F9012303220021CA
:100A10001846FFF788FD00BF7F4800780028FBD00C
:100A20000023032211461046FFF7CCFC00230322CB
:100A300011460120FFF777FD00200323421E1146D7
:100A400000901046FFF79AFD012303221146184635
:100A5000FFF7E3FC012454E0E0B20121FFF702FFBD
:100A60000830C5B20121284604F052F840F6E440AF
:100A700004F0BEFE0AE00120FFF724FE0120831EE1
:100A80000322194600901846FFF778FD5948007870
:100A90000028F0D0E0B20121FFF7E4FE401DC5B20E
:100AA0000121284604F034F84FF4967004F0A0FEBB
:100AB0000AE00120FFF706FE0120831E03221946EB
:100AC00000901846FFF75AFD4A4800780028F0D0F9
:100AD0000121022004F01CF840F6E44004F088FEF6
:100AE0000AE00120FFF7EEFD0120831E03221946D4
:100AF00000901846FFF742FD3E4800780028F0D0ED
:100B0000641C032CA8DD0023042219460320FFF7F0
:100B1000CFFE0123022200211846FFF704FD012425
:100B200055E0E0B20121FFF79DFE401DC5B2012155
:100B3000284603F0EDFF4FF4967004F059FE0AE0EA
:100B40000120FFF7BFFD0120831E1A4603210090FC
:100B50001846FFF713FD274800780028F0D0012140
:100B6000042003F0D5FF40F6E44004F041FE0AE023
:100B70000120FFF7A7FD0120831E1A4603210090E4
:100B80001846FFF7FBFC1B4800780028F0D0611ED8
:100B90001E4A515C3039214A515C0A31C8B20121E8
:100BA00003F0B6FF40F6FC0004F022FE0AE001204C
:100BB000FFF788FD0120831E1A4603210090184686
:100BC000FFF7DCFC0B4800780028F0D0641C032CF5
:100BD000A7DD01246BE0E0B20121FFF743FE401DD9
:100BE000C5B20121284603F093FF4FF4967004F03C
:100BF000FFFD20E001010020A800002020000020CF
:100C00003C0000200000B443F90000203002002026
:100C10003400002000003443B30000201A000020FC
:100C20000120FFF74FFD0120831E1A46032100908B
:100C30001846FFF7A3FCF94800780028F0D0611EA1
:100C4000F74A515C3039F74A515C0D31C8B2012185
:100C500003F05EFF40F61C4004F0CAFD0AE00120EC
:100C6000FFF730FD0120831E1A460321009018462D
:100C7000FFF784FCE94800780028F0D00121022029
:100C800003F046FF40F6E44004F0B2FD0AE0012024
:100C9000FFF718FD0120831E1A4603210090184615
:100CA000FFF76CFCDD4800780028F0D0641C032CB2
:100CB00091DD0023022211460320FFF709FC0322E5
:100CC00000210120FFF7D4FB5A20D7490860FFF725
:100CD00039FB0023052203210220FFF773FB0023C9
:100CE000052203210120FFF71EFC012455E0E0B29C
:100CF0000121FFF7B7FD401DC5B20121284603F0D1
:100D000007FF4FF4967004F073FD0AE00120FFF72F
:100D1000D9FC01200523821E114600901046FFF7E2
:100D20002DFCBE4800780028F0D00121042003F0FB
:100D3000EFFE40F6E44004F05BFD0AE00120FFF71F
:100D4000C1FC01200523821E114600901046FFF7CA
:100D500015FCB24800780028F0D0611EB04A515C02
:100D60003039B04A515C1031C8B2012103F0D0FED5
:100D700040F6282004F03CFD0AE00120FFF7A2FC29
:100D800001200523821E114600901046FFF7F6FB56
:100D9000A24800780028F0D0641C032CA7DD0023B3
:100DA000012203211046FFF793FB4FF487709E4901
:100DB0000860032200210220FFF75AFB0020431E97
:100DC0000322194600901846FFF7D8FB01210220A4
:100DD00004F0C5F9C8B90221084604F0C0F9A0B969
:100DE0000321022004F0BBF978B90421022004F0A9
:100DF000B6F950B90521022004F0B1F928B9002351
:100E0000032202210120FFF77EFDFFF79BFA4FF43A
:100E10008770854908600023032219460220FFF7E6
:100E200047FD0023042202211046FFF7CBFA0123DD
:100E3000022219461846FFF776FB012468E0E0B26B
:100E40000021FFF70FFD1430C5B20121284603F041
:100E50005FFE40F6AC5004F0CBFC0AE00120FFF747
:100E600031FC0120831E0322194600901846FFF72B
:100E700085FB6A4800780028F0D04FF47A6004F0CF
:100E8000B7FC0AE00120FFF71DFC0120831E0322AE
:100E9000194600901846FFF771FB6048007800285B
:100EA000F0D0E0B20021FFF7DDFC401DC5B201210A
:100EB000284603F02DFE4FF4967004F099FC0AE0EA
:100EC0000120FFF7FFFB0120831E0322194600903B
:100ED0001846FFF753FB514800780028F0D0012155
:100EE000032003F015FE40F6E44004F081FC0AE024
:100EF0000120FFF7E7FB0120831E03221946009023
:100F00001846FFF73BFB454800780028F0D0641CEA
:100F1000032C94DD0023022211460120FFF7F3FC8D
:100F2000042201210846FFF7A3FA00203E49086089
:100F3000FFF7C8FBFFF706FA002304221946032037
:100F4000FFF7B6FC0123022200211846FFF7EBFA57
:100F5000012455E0E0B20021FFF784FC401DC5B23A
:100F60000121284603F0D4FD4FF4967004F040FCB4
:100F70000AE00120FFF7A6FB0120831E1A46032189
:100F800000901846FFF7FAFA244800780028F0D0BD
:100F90000121042003F0BCFD40F6E44004F028FCED
:100FA0000AE00120FFF78EFB0120831E1A46032171
:100FB00000901846FFF7E2FA184800780028F0D0B1
:100FC000174AE11C515C3039164A515C0A31C8B2EB
:100FD000012103F09DFD40F6FC0004F009FC0AE04D
:100FE0000120FFF76FFB0120831E1A4603210090AA
:100FF0001846FFF7C3FA094800780028F0D0641CAF
:10100000032CA7DD00BFFEE72DE9F84304460D469B
:1010100016461F464FF000080DE0000001010020B9
:10102000300200201A00002020000020012003F0E0
:1010300057F808F10108B8F1050FF7DB31462846EB
:1010400004F08DF810B10FB9012000E0002000EB92
:1010500004094FF0FF303B4632462946009048468F
:1010600004F06CF900BF04F08CF90028FBD0BDE857
:10107000F8832DE9F84304460D4616461F464FF007
:10108000000804E0012003F047F808F10108B8F176
:10109000050FF7DB3146284604F061F810B10FB9AF
:1010A000012000E0002000EB04094FF0FF303B4638
:1010B000324629460090484604F040F900BF04F04B
:1010C00060F90028FBD0BDE8F8832DE9F843044619
:1010D0000D4616461F464FF0000804E0012003F0BD
:1010E0001BF808F10108B8F1050FF7DB3146284677
:1010F00004F035F810B10FB9012000E0002000EB3A
:1011000004094FF0FF303B463246294600904846DE
:1011100004F014F900BF04F034F90028FBD0BDE856
:10112000F8832DE9F84304460D4616461F464FF056
:10113000000804E0012002F0EFFF08F10108B8F117
:10114000050FF7DB3146284604F009F810B10FB956
:10115000012000E0002000EB04094FF0FF303B4687
:10116000324629460090484604F0E8F800BF04F0F3
:1011700008F90028FBD0BDE8F8832DE9F8430446C0
:101180000D4616461F464FF0000804E0022002F00C
:1011900075FF08F10108B8F1050FF7DB3146284665
:1011A00003F0DDFF10B10FB9012000E0002000EBDB
:1011B000040902203B46324629460090484604F086
:1011C000BDF800BF04F0DDF80028FBD0BDE8F883CF
:1011D0002DE9F84304460D4616461F464FF0000819
:1011E00004E0022002F063FF08F10108B8F1050FE6
:1011F000F7DB3146284603F0B2FF10B10FB90120EA
:1012000000E0002000EB040903203B46324629465B
:101210000090484604F092F800BF04F0B2F80028AD
:10122000FBD0BDE8F883F8B504460D4616464FF0EE
:10123000FF300023324629460090601C04F07EF8FF
:1012400000BF012003F04EF803E004F09AF800B16B
:1012500003E0FE4800780028F7D000BF04F091F8C2
:101260000028EED003F0C6F8F94800685A38F8496B
:1012700008600846006810F1B40F04DC08460068F6
:1012800000F5B4700860F8BD2DE9F047002403E0D4
:10129000B42003F045F8641C0A2CF9DB0120EC496A
:1012A0000860BAE053E0EB49B1F9040004F0C3FC74
:1012B00081464FF08E4104F09FFB8046E64904F0E2
:1012C00069FB0746E5480168384604F05DFB0646C1
:1012D000E34904F007FB054604F0C3FC4FF4B47186
:1012E00090FBF1F201FB12005A2806DBD848006897
:1012F000012802D103F07EF82DE0D649B1F90400AF
:1013000004F099FC81464FF08E4104F075FB804655
:10131000D14904F03FFB0746D0480168384604F045
:1013200033FB0646CE4904F0DDFA054604F099FC8D
:101330004FF4B47190FBF1F201FB12005A2806DC65
:10134000C3480068022802D103F054F803E0BF4804
:1013500000780028A7D000BF1E2001F0EEFFBD4995
:10136000B1F9040004F067FC81464FF08E4104F0AF
:1013700043FB8046B84904F00DFB0746B7480168B7
:10138000384604F001FB0646B54904F0ABFA0546C1
:1013900004F067FC4FF4B47190FBF1F201FB120012
:1013A0005A2800D13AE0AB49B1F9040004F043FCFB
:1013B00081464FF08E4104F01FFB8046A64904F0A1
:1013C000E9FA0746A5480168384604F0DDFA064602
:1013D000A34904F087FA054604F043FC4FF4B471C6
:1013E00090FBF1F201FB12005A280BDD002403E010
:1013F000052002F0ADFF641C0A2CF9DB02209449A1
:1014000008600AE0002403E0052002F089FF641C64
:101410000A2CF9DB01208E49086043E700BF002059
:101420008B4908608B49B1F9040004F004FC0646BE
:101430004FF08E4104F0E0FA0546874904F0AAFA1D
:1014400086490860BDE8F0872DE9F047002403E0F5
:10145000B42002F07DFF641C0A2CF9DB02207C49D9
:101460000860BAE053E07B49B1F9040004F0E3FB03
:1014700081464FF08E4104F0BFFA8046764904F071
:1014800089FA074675480168384604F080FA06462E
:10149000734904F027FA054604F0E3FB4FF4B471F6
:1014A00090FBF1F201FB12005A2806DB6848006845
:1014B000022802D102F09EFF2DE06649B1F9040036
:1014C00004F0B9FB81464FF08E4104F095FA804656
:1014D000614904F05FFA074660480168384604F045
:1014E00056FA06465E4904F0FDF9054604F0B9FBDC
:1014F0004FF4B47190FBF1F201FB12005A2806DCA4
:1015000053480068012802D102F074FF03E04F48FD
:1015100000780028A7D000BF1E2001F00EFF4D4923
:10152000B1F9040004F087FB81464FF08E4104F0CE
:1015300063FA8046484904F02DFA07464748016897
:10154000384604F024FA0646454904F0CBF905462E
:1015500004F087FB4FF4B47190FBF1F201FB120031
:101560005A2800D13AE03B49B1F9040004F063FB8A
:1015700081464FF08E4104F03FFA8046364904F030
:1015800009FA074635480168384604F000FA06466D
:10159000334904F0A7F9054604F063FB4FF4B47136
:1015A00090FBF1F201FB12005A280BDD002403E04E
:1015B000052002F0B5FE641C0A2CF9DB0120244949
:1015C00008600AE0002403E0052002F0C1FE641C6C
:1015D0000A2CF9DB02201E49086043E700BF002007
:1015E0001B4908601B49B1F9040004F024FB0646BE
:1015F0004FF08E4104F000FA0546174904F0CAF98D
:1016000016490860BDE8F0872DE9F0471149B1F9A6
:10161000040004F010FB81464FF08E4104F0ECF919
:1016200080460D4904F0B6F907460C480168384673
:1016300004F0ADF906460A4904F054F9054604F0F1
:1016400010FB4FF4B47190FBF1F20BE0A800002006
:101650002000002034000020000034433C00002023
:101660000000B44301FB120000280BDA002403E061
:10167000052002F055FE641C0A2CF9DB022081498A
:1016800008602DE08049B1F9040004F0D4FA8146E5
:101690004FF08E4104F0B0F980467C4904F07AF9AD
:1016A00007467B480168384604F071F906467949D7
:1016B00004F018F9054604F0D4FA4FF4B47190FB25
:1016C000F1F201FB120000280ADD002403E00520EE
:1016D00002F03EFE641C0A2CF9DB01206949086017
:1016E000B9E053E06849B1F9040004F0A4FA814676
:1016F0004FF08E4104F080F98046644904F04AF9C5
:10170000074663480168384604F041F906466149D6
:1017100004F0E8F8054604F0A4FA4FF4B47190FB25
:10172000F1F201FB1200002806DB5648006802288F
:1017300002D102F05FFE2DE05349B1F9040004F03C
:101740007AFA81464FF08E4104F056F980464F49AF
:1017500004F020F907464E480168384604F017F9AE
:1017600006464C4904F0BEF8054604F07AFA4FF4F8
:10177000B47190FBF1F201FB1200002806DC414835
:101780000068012802D102F035FE03E042480078EB
:101790000028A7D000BF1E2001F0CFFD3A49B1F9C3
:1017A000040004F048FA81464FF08E4104F024F919
:1017B0008046364904F0EEF8074635480168384659
:1017C00004F0E5F80646334904F08CF8054604F0C9
:1017D00048FA4FF4B47190FBF1F201FB120000B92A
:1017E0003AE02949B1F9040004F025FA81464FF0A6
:1017F0008E4104F001F98046244904F0CBF80746F5
:1018000023480168384604F0C2F80646214904F02E
:1018100069F8054604F025FA4FF4B47190FBF1F233
:1018200001FB120000280BDD002403E0052002F07C
:101830008FFD641C0A2CF9DB0120124908600AE0C4
:10184000002403E0052002F06BFD641C0A2CF9DB88
:1018500002200C49086044E700BF002009490860E5
:101860000949B1F9040004F0E6F906464FF08E414B
:1018700004F0C2F80546054904F08CF804490860F4
:10188000BDE8F08720000020340000200000344331
:101890003C0000200000B443A80000200648804718
:1018A00006480047FEE7FEE7FEE7FEE7FEE7FEE745
:1018B000FEE7FEE7FEE7FEE743020008310100080D
:1018C00031490143314A1160704770B5002100234E
:1018D0000F22C47804B32D4C246804F4E064C4F5EA
:1018E000E064210AC1F10403CA40447804FA03F118
:1018F0008478144021430901254C0678A1550478C9
:1019000004F01F050124AC4005786D11AD0005F110
:10191000E025C5F8004109E0047804F01F05012422
:10192000AC401C4D0678761145F8264070BD1A4A29
:101930000A400243154B1B1F1A60704739B1134A06
:10194000121D12680243114B1B1D1A6006E00F4A5C
:10195000121D126882430D4B1B1D1A60704704282C
:1019600008D14FF0E021096941F004014FF0E02275
:10197000116107E04FF0E021096921F004014FF007
:10198000E0221161704700000000FA050CED00E054
:1019900000E400E080E100E080FFFF1F10B5044696
:1019A000CC48844208D10121042000F02DFB002105
:1019B000042000F029FB46E0C748844208D10121F9
:1019C000082000F021FB0021082000F01DFB3AE078
:1019D000C248844208D10121102000F015FB0021EB
:1019E000102000F011FB2EE0BD48844208D10121F7
:1019F000202000F009FB0021202000F005FB22E060
:101A0000B848844208D10121402000F0FDFA0021AD
:101A1000402000F0F9FA16E0B348844208D10121D1
:101A2000802000F0F1FA0021802000F0EDFA0AE0B9
:101A3000AE48844207D10121801500F0E5FA00216B
:101A4000A01500F0E1FA10BD10B50121084600F024
:101A5000DBFA0021012000F0D7FA10BD2DE9F0419A
:101A6000024600250026002000230024002791F8CC
:101A700003C00CF00F0591F803C00CF0100CBCF182
:101A8000000F03D091F802C04CEA050591F800C0A0
:101A9000BCF1000F31D0146800202BE04FF0010C96
:101AA0000CFA00F3B1F800C00CEA03069E4220D104
:101AB00083004FF00F0C0CFA03F7BC4305FA03FC4C
:101AC0004CEA040491F803C0BCF1280F06D14FF092
:101AD000010C0CFA00FCC2F814C00AE091F803C033
:101AE000BCF1480F05D14FF0010C0CFA00FCC2F814
:101AF00010C0401C0828D1D31460B1F800C0BCF15C
:101B0000FF0F34DD546800202EE000F1080C4FF088
:101B1000010808FA0CF3B1F800C00CEA03069E4273
:101B200021D183004FF00F0C0CFA03F7BC4305FAE8
:101B300003FC4CEA040491F803C0BCF1280F05D162
:101B400000F1080C08FA0CF8C2F8148091F803C0F0
:101B5000BCF1480F07D100F1080C4FF0010808FA5A
:101B60000CF8C2F81080401C0828CED35460BDE8A1
:101B7000F0814FF6FF710180022181700421C17054
:101B800070470246002093680B400BB1012000E033
:101B9000002070470146886880B2704702460020E6
:101BA000D3680B400BB1012000E0002070470146D4
:101BB000C86880B2704701617047416170470AB1DF
:101BC000016100E041617047C16070474FF48032AD
:101BD0000A4382618161826182698269704702463B
:101BE0000020434B18684FF68073184040EA0210FB
:101BF00008433F4B186070473E49C8617047F0B5D5
:101C00000A46002300240021002500F00046B6F11A
:101C1000004F02D1364EF16901E0354E7168C0F3D4
:101C2000034583B200F44016B6F5401F08D121F0F9
:101C300070612F4E766826F070662D4F7E6012E040
:101C400000F48016B6F5801F06D1032606FA05F4C7
:101C5000A14341F0706106E0460D360103FA06F635
:101C6000B14341F0706122B1460D360103FA06F628
:101C7000314300F00046B6F1004F02D11C4EF16135
:101C800001E01B4E7160F0BD30B500228B071C0FC8
:101C90000F2303FA04F2164B08338C1053F8243048
:101CA0009343134C08348D1044F8253023468C1090
:101CB00053F824308C07240F00FA04F423430C4C0F
:101CC00008348D1044F8253030BD0A49DC310860F5
:101CD0007047000000080140000C01400010014066
:101CE0000014014000180140001C01400020014088
:101CF0000000014000002042DF48006840F0010081
:101D0000DD49086008464068DC490840DA49486017
:101D100008460068DA490840D74908600846006864
:101D200020F4802008600846406820F4FE004860E7
:101D30004FF41F0088607047CF49096821F4803153
:101D4000CD4A11601146096821F480211160B0F577
:101D5000803F03D0B0F5802F0ED106E0C649096858
:101D600041F48031C44A116007E0C349096841F475
:101D7000A021C14A116000E000BF00BF704710B54C
:101D800001460022002300204A11012A02D1BA4C48
:101D9000236806E0022A02D1B74C236A01E0B64C60
:101DA000636A01F01F02012494401C400CB1012021
:101DB00000E0002010BD38B5002000900024002570
:101DC00000BF3120FFF7DBFF05460098401C009064
:101DD0000098B0F5A06F01D0002DF2D03120FFF7B0
:101DE000CEFF08B1012400E00024204638BD0146A2
:101DF0000020A14A106820F0F80040EAC1001060FD
:101E00007047A04908607047024600209A4B586806
:101E100020F47C1042EA01031843974B5860704746
:101E200098490866704701460020934A506820F0A0
:101E300003000843506070478F48406800F00C0072
:101E40007047014600208C4A506820F0F00008439B
:101E50005060704701460020874A506820F4E060D7
:101E600008435060704701460020834A506820F4C0
:101E7000605040EAC1005060704729B17E4A527AF2
:101E800002437D4B5A7204E07B4A527A82437A4B7A
:101E90005A7270477B49D83108607047014600206C
:101EA000754A506820F44040084350607047002154
:101EB000714A20321170704A82F82010012802D035
:101EC00004280AD104E001216B4A2032117005E098
:101ED0000521694A2032117000E000BF00BF704741
:101EE0006949086070476449096A0143624A11629E
:101EF0007047654944390860704730B500210022B9
:101F0000002400235C4D6D6805F00C0121B104290B
:101F100005D0082923D105E05C4D056022E05B4D2A
:101F200005601FE0544D6D6805F47012524D6D68E8
:101F300005F48034022505EB92421CB9544D5543FB
:101F400005600BE04C4D6D6805F400351DB1504D3A
:101F50005543056002E04D4D5543056002E04B4D91
:101F6000056000BF00BF444D6D6805F0F001090930
:101F7000484D6B5C0568DD4045603F4D6D6805F47C
:101F8000E061090A434D6B5C4568DD4085603A4D70
:101F90006D6805F46051C90A3E4D6B5C4568DD40D3
:101FA000C560354D6D6805F44041890B3A4D6B5C59
:101FB000C568B5FBF3F5056130BD29B12E4A5269FC
:101FC00002432D4B5A6104E02B4A526982432A4B4B
:101FD0005A61704729B1284A92690243264B9A6197
:101FE00004E0254A92698243234B9A61704729B1E4
:101FF000214AD2690243204BDA6104E01E4AD269C9
:1020000082431D4BDA61704729B11B4AD2680243F3
:10201000194BDA6004E0184AD2688243164BDA6042
:10202000704729B1144A12690243134B1A6104E044
:10203000114A12698243104B1A61704712494039A4
:10204000086070470F49C86470470B49C8717047F2
:102050000948406A40F0807007494862704701466D
:102060000020054A92680A400AB1012000E00020E1
:102070007047014988727047001002400000FFF865
:10208000FFFFF6FE000042428004424200127A0046
:1020900000093D00400000205000002010B504461B
:1020A000FE48844208D10121C014FFF7ADFF002192
:1020B000E014FFF7A9FFC4E0B4F1804F08D101217B
:1020C0000846FFF7AEFF00210120FFF7AAFFB8E0A6
:1020D000F348844208D101210220FFF7A2FF00212A
:1020E0000220FFF79EFFACE0EE48844208D10121B8
:1020F0000420FFF796FF00210420FFF792FFA0E0E5
:10210000E948844208D101210820FFF78AFF002115
:102110000820FFF786FF94E0E448844208D10121BB
:102120001020FFF77EFF00211020FFF77AFF88E0E4
:10213000DF48844208D101212020FFF772FF0021EF
:102140002020FFF76EFF7CE0DA48844208D10121AD
:102150004014FFF759FF00216014FFF755FF70E0AE
:10216000D548844209D10121C804FFF74DFF002161
:102170004FF40020FFF748FF63E0D048844209D1C4
:1021800001210805FFF740FF00214FF48010FFF701
:102190003BFF56E0CA48844209D101214805FFF7B8
:1021A00033FF00214FF40010FFF72EFF49E0C54830
:1021B000844208D101214020FFF733FF0021402055
:1021C000FFF72FFF3DE0C048844208D10121802065
:1021D000FFF727FF00218020FFF723FF31E0BB48F6
:1021E000844208D101218015FFF71BFF0021A015B3
:1021F000FFF717FF25E0B648844209D10121080402
:10220000FFF702FF00214FF48030FFF7FDFE18E0DA
:10221000B048844209D101214804FFF7F5FE0021AE
:102220004FF40030FFF7F0FE0BE0AB48844208D1DA
:1022300001218804FFF7E8FE00214FF48020FFF71A
:10224000E3FE10BD00220288944B98420ED0994BB9
:1022500098420BD0B0F1804F08D0914B984205D0F6
:10226000904B984202D0904B984204D14FF68F7316
:102270001A404B881A438D4B984207D08C4B98429A
:1022800004D04FF6FF431A40CB881A4302808B8854
:1022900083850B880385814B98420BD0854B9842F0
:1022A00008D08B4B984205D08A4B984202D08A4B7B
:1022B000984201D10B7A038601238382704770B55F
:1022C000002400220023058C4FF6FE76354005845D
:1022D000028C8388048B4FF68F752C40B51E2C40E2
:1022E0000D882C43751E2A400D892A434D882A43A8
:1022F0006A4DA8420BD06F4DA84208D0744DA84239
:1023000005D0744DA84202D0734DA84213D14FF6A8
:10231000F7752A404D892A434FF6FB752A408D8870
:102320002A434FF6FF652B404FF6FF552B408D8912
:102330002B43CD892B4383800483CD8885860284FB
:1023400070BD70B5002400220023058C4FF6EF7697
:1023500035400584028C8388048B48F6FF752C4039
:102360004FF6FF452C400D884FF6FF7606EA05250F
:102370002C434FF6DF752A400D8906EA05152A43DE
:102380004D8806EA05152A43444DA84202D0494D1E
:10239000A8421DD14FF67F752A404D894FF6FF7632
:1023A00006EA05152A434FF6BF752A408D8806EACE
:1023B00005152A434FF6FF352B404FF2FF752B4092
:1023C0008D8906EA85052B43CD8906EA85052B43D1
:1023D00083800483CD880587028470BD70B5002496
:1023E00000220023058C4FF6FF6635400584028CE1
:1023F0008388848B4FF68F752C404FF6FC752C40EC
:102400000D882C434FF6FF552A400D894FF6FF7675
:1024100006EA05252A434D8806EA05252A431F4D6D
:10242000A84202D0234DA8421DD14FF2FF752A4089
:102430004D894FF6FF7606EA05252A434FF6FF350C
:102440002A408D8806EA05252A434EF6FF752B4063
:102450004DF6FF752B408D8906EA05152B43CD8976
:1024600006EA05152B4383808483CD888587028403
:1024700070BD70B5002200230024058C4EF6FF7657
:1024800035400584038C8488828B48F6FF752A408A
:102490004FF6FF452A400D8820E00000002C014047
:1024A0000004004000080040000C00400010004004
:1024B0000014004000340140004C01400050014035
:1024C0000054014000180040001C00400020004063
:1024D0000040014000440140004801404FF6FF76B3
:1024E00006EA05252A434DF6FF752B400D8906EABD
:1024F00005352B434D8806EA05352B43FA4DA84296
:1025000002D0FA4DA84208D14BF6FF752C408D89B8
:102510004FF6FF7606EA85152C4384808283CD88AA
:10252000A0F84050038470BD828B4FF2FF331A40F5
:102530008283828B4FF6FF7303EA01231A4382835F
:102540007047F0B50C461546002200210026078C86
:102550004EF6FF7C07EA0C070784828B018C4FF64E
:10256000FF7707EA043640F6FF473A404FF6FF7719
:1025700007EA05273A434FF6FF7707EA03373A435E
:10258000D94FB8420ED0D94FB8420BD0B0F1804FDE
:1025900008D0D74FB84205D0D64FB84202D0D64F58
:1025A000B84206D14DF6FF77394046F4805739439B
:1025B00005E047F6FF57394044F48057394382839A
:1025C0000184F0BD828B4FF6F3731A408283828BB5
:1025D0000A4382837047F0B50C461546002200215D
:1025E0000026078C4FF6FF6C07EA0C070784828BE6
:1025F000018C4FF6FF7707EA04264FF60C773A4036
:102600004FF6FF7707EA03172F433A43B64FB84216
:102610000ED0B64FB8420BD0B0F1804F08D0B44FB7
:10262000B84205D0B34FB84202D0B34FB84206D13A
:102630004FF6FF57394046F48077394305E04FF2B3
:10264000FF57394044F48077394382830184F0BDD9
:10265000028B4FF2FF331A400283028B4FF6FF7357
:1026600003EA01231A4302837047F0B50C4615466E
:10267000002200210026078C4FF6EF7C07EA0C07AA
:102680000784028B018C4FF6FF7707EA041640F6A9
:10269000FF473A404FF6FF7707EA03373A434FF6D2
:1026A000FF7707EA05273A438F4FB8420ED08F4F86
:1026B000B8420BD0B0F1804F08D08D4FB84205D052
:1026C0008C4FB84202D08C4FB84206D14FF6DF771C
:1026D000394046F01007394305E04FF65F7739403F
:1026E00044F01007394302830184F0BD028B4FF69A
:1026F000F3731A400283028B0A4302837047F0B5DA
:102700000C46154600220021068C4FF6FE773E400F
:102710000684028B018C4FF60C7632407E1C06EA52
:1027200003162E433243704EB0420ED06F4EB0426D
:102730000BD0B0F1804F08D06D4EB04205D06D4E39
:10274000B04202D06C4EB04206D14FF6FD76314019
:1027500044F00106314305E04FF6F576314044F090
:102760000106314302830184F0BD70B505460C4675
:102770005D4885420ED05D4885420BD0B5F1804F53
:1027800008D05B48854205D05A48854202D05A4855
:10279000854200D100E000BF208850B92389A2887B
:1027A00061882846FFF7ABFFE1882846FFF79EFFC8
:1027B00025E0208804280AD12389A2886188284638
:1027C000FFF753FFE1882846FFF742FF17E0208814
:1027D00008280AD12389A28861882846FFF7FBFED2
:1027E000E1882846FFF7EEFE09E02389A288618888
:1027F0002846FFF7A6FEE1882846FFF795FE70BD44
:102800002DE9F04105460C4600260127608808B9ED
:10281000022600E00026A088012801D1022700E05E
:1028200001272088A0B92389A28861882846FFF75C
:1028300066FFE1882846FFF759FF23893A4631466B
:102840002846FFF712FFE1882846FFF701FF13E053
:102850002389A28861882846FFF707FFE188284678
:10286000FFF7F6FE23893A4631462846FFF747FF31
:10287000E1882846FFF73AFFBDE8F0810A884B88D7
:102880001A438B881A43CB881A430B891A434B8906
:102890001A438B891A43A0F8442070474FF6FF7102
:1028A000818000210180C180418001727047002138
:1028B000018041808180C180018141818181C1810C
:1028C0007047002101804180012181800021C18069
:1028D000018170470021018041808180C180018198
:1028E0004181818170470000002C0140003401408B
:1028F0000004004000080040000C004021B10288A4
:1029000042F00102028004E002884FF6FE731A4092
:102910000280704731B1B0F8442042F40042A0F880
:10292000442005E0B0F84420C2F30E02A0F8442091
:1029300070471AB183890B43838102E083898B43FB
:10294000838170478182704741EA0203A0F84830D2
:1029500070471AB183890B43838102E083898B43DB
:102960008381704701894FF6F872114001817047E9
:102970000A46002101894FF68F73194011430181E6
:10298000704730B504460D4629462046FFF7F0FF54
:10299000208940F00700208130BD2DE9F041044638
:1029A0000D4616461F46602D06D13B460122314694
:1029B0002046FFF75AFE05E03B46012231462046FD
:1029C000FFF79DFE29462046FFF7D2FF208940F001
:1029D00007002081BDE8F08130B50C460021018957
:1029E000C9B24FF6FF7505EA032515432543294370
:1029F000018130BD2DE9F04105460E461746984647
:102A0000002443463A4631462846FFF7E5FF2C8925
:102A10004FF6F870044044F007044FF68F700440FE
:102A200044F070042C81BDE8F081F0B504460D46F9
:102A300016461F463B46324629462046FFF7CCFF46
:102A4000208940F480402081F0BD0185828270475A
:102A50000A46002101884FF68F7319401143018007
:102A60007047F0B50C4615461E4600210022002393
:102A70000189028B038C4FF6F877394021434FF6DA
:102A8000FC473A4040F201173A434FF6DD773B40AE
:102A90004FF6FF7707EA06172F433B430181028376
:102AA0000384F0BD0A460021018B4FF68F73194055
:102AB0001143018370470A460021018B48F6FF73DA
:102AC00019404FF6FF7303EA02231943018370474D
:102AD0000A460021818B4FF68F7319401143818381
:102AE00070470A460021818B48F6FF7319404FF664
:102AF000FF7303EA022319438183704721B10288DF
:102B000042F08002028004E002884FF67F731A4090
:102B10000280704721B1828842F00402828004E082
:102B200082884FF6FB731A408280704721B18288F9
:102B300042F00802828004E082884FF6F7731A4060
:102B40008280704721B1828842F00102828004E0D5
:102B500082884FF6FE731A40828070470A46002131
:102B6000018B4FF6F77319401143018370470A46F2
:102B70000021018B4FF2FF7319404FF6FF7303EAF8
:102B800002231943018370470A460021818B4FF6C7
:102B9000F77319401143818370470A460021818BE6
:102BA0004FF2FF7319404FF6FF7303EA02231943F4
:102BB000818370470A460021018B4FF6FB73194051
:102BC0001143018370470A460021018B4FF6FF3302
:102BD00019404FF6FF7303EA02231943018370473C
:102BE0000A460021818B4FF6FB7319401143818304
:102BF00070470A460021818B4FF6FF3319404FF68C
:102C0000FF7303EA02231943818370470A460021B8
:102C1000018B4FF67F7319401143018370470A46B9
:102C20000021018BC1F30E014FF6FF7303EA02236B
:102C30001943018370470A460021818B4FF67F7349
:102C400019401143818370470A460021818BC1F3EB
:102C50000E014FF6FF7303EA022319438183704785
:102C60000A460021018C4FF6FD731940114301847F
:102C700070470A460021018C4FF6F7731940114343
:102C8000018470470A460021018C4FF6DF7319401A
:102C90004FF6FF7303EA02131943018470470A4693
:102CA0000021018C4FF67F7319404FF6FF7303EA42
:102CB00002131943018470470A460021018C4FF624
:102CC000FF5319404FF6FF7303EA022319430184AF
:102CD00070470A460021018C4FF2FF7319404FF6EE
:102CE000FF7303EA02231943018470470A46002157
:102CF000018C4DF6FF7319404FF6FF7303EA023360
:102D000019430184704730B5002301248C40A3B2DD
:102D1000048C9C430484048C02FA01F5ADB22C436C
:102D2000048430BD30B5002304248C40A3B2048C4D
:102D30009C430484048C02FA01F5ADB22C43048454
:102D400030BD70B503460020002418461830012518
:102D50008D40ACB21D8CA5431D8409B1082909D151
:102D600000EB6100056825F07005056005681543F6
:102D700005600EE00D1FC5F34E052844056825F4D7
:102D8000E045056005684FF6FF7606EA0226354302
:102D9000056070BD21B1028842F00202028004E0A9
:102DA00002884FF6FD731A400280704721B10288F5
:102DB00042F00402028004E002884FF6FB731A40DE
:102DC0000280704721B1828842F08002828004E054
:102DD00082884FF67F731A408280704702884FF6D0
:102DE000F7731A40028002880A4302807047828883
:102DF0004FF68F731A40828082880A438280704720
:102E000002894FF6F8731A40028102890A4302814F
:102E1000704702894FF67F731A40028102890A4384
:102E20000281704781847047818570478186704731
:102E30000187704781877047A0F84010704702886B
:102E40004FF6FF431A40028002880A43028070470F
:102E50000146888E70470146088F70470146888F6B
:102E600070470146B1F8400070470146888C7047B2
:102E70000146088D704702460020138A0B400BB1B3
:102E8000012000E000207047CA430282704730B53D
:102E90000246002000230024158A05EA01039589D3
:102EA00005EA010413B10CB1012000E0002030BD9F
:102EB000CA4302827047000010B50446FB488442B2
:102EC00009D101218803FFF79FF800214FF48040CA
:102ED000FFF79AF832E0F648844209D1012148040C
:102EE000FFF79FF800214FF40030FFF79AF825E034
:102EF000F048844209D101218804FFF792F80021AB
:102F00004FF48020FFF78DF818E0EB48844209D198
:102F10000121C804FFF785F800214FF40020FFF7D6
:102F200080F80BE0E548844208D101210805FFF74D
:102F300078F800214FF48010FFF773F810BD2DE9E9
:102F4000F04786B005460E460024A24600BFA146C3
:102F50000027B08900B100BF2F462C8A4CF6FF70C5
:102F60000440F08804432C82AC894EF6F3100440F0
:102F7000B08831890843718908430443AC81AC8A25
:102F80004FF6FF400440B0890443AC8201A8FEF72D
:102F9000B4FFC648874202D1DDF810A001E0DDF899
:102FA0000CA0A88900F4004040B10AEBCA0000EB75
:102FB0000A1031684900B0FBF1F807E00AEBCA00DB
:102FC00000EB0A1031688900B0FBF1F86420B8FB0F
:102FD000F0F004012009642101FB1089A88900F4A4
:102FE000004040B1322000EBC900B0FBF1F000F02E
:102FF0000700044308E0322000EB09106421B0FB15
:10300000F1F000F00F0004432C8106B0BDE8F0871A
:103010004FF41651016000218180C18001810C2193
:10302000418100218181704710B502460020108A3D
:103030004FF2FF0318400B884C8823438C882343AE
:10304000CC8823431843108210BD002101804180A9
:103050008180C180704721B1828942F4005282810F
:1030600004E082894DF6FF731A4082817047F0B503
:103070000346002400260025002040F66A17B942C6
:1030800000D100BF1846C1F3421401F01F0601270A
:1030900007FA06F5012C01D10C3004E0022C01D115
:1030A000103000E014301AB107682F43076002E0C7
:1030B0000768AF430760F0BD1AB1838A0B43838270
:1030C00002E0838A8B4383827047028A4FF6F07353
:1030D0001A400282028A0A430282704782894FF2B2
:1030E000FF731A40828182890A438281704721B12D
:1030F000828942F00202828104E082894FF6FD73E8
:103100001A4082817047028A4FF6DF731A400282AA
:10311000028A0A430282704721B1028A42F4804245
:10312000028204E0028A4BF6FF731A400282704763
:10313000C1F308028280704701468888C0F3080006
:103140007047818941F0010181817047028BD2B2C1
:103150000283028B42EA012202837047028B02F44F
:103160007F420283028B0A430283704721B1828A25
:1031700042F02002828204E0828A4FF6DF731A4016
:103180008282704721B1828A42F01002828204E07A
:10319000828A4FF6EF731A408282704721B1828A89
:1031A00042F00802828204E0828A4FF6F7731A40E6
:1031B0008282704721B1828942F40042828103E019
:1031C0008289C2F30E028281704721B1828A42F461
:1031D0000062828204E0828A4FF2FF731A40828288
:1031E0007047828A4FF6FB731A408282828A0A43B2
:1031F0008282704721B1828A42F00202828204E018
:10320000828A4FF6FD731A40828270470246002080
:10321000B1F5007F00D100BF13880B400BB1012036
:1032200000E00020704701F40072B2F5007F00D189
:1032300000BFCA430280704770B5024600240023D5
:103240000025002040F66A16B14200D100BFC1F34C
:10325000421501F01F03012606FA03F3012D02D1E6
:103260009689334006E0022D02D1168A334001E0F0
:10327000968A33400C12012606FA04F4168834406C
:1032800013B10CB1012000E0002070BD10B5002288
:10329000002340F66A14A14200D100BF0A120124A3
:1032A0009440A3B2DC43048010BD0000003801400C
:1032B0000044004000480040004C004000500040E6
:1032C00010B56FF00400FEF74AFB3448006834493B
:1032D000B0FBF1F0334908700846007800EB40017C
:1032E000C1EBC0104FF6FF7101EAC0002E49088003
:1032F00010BD01462B4A12784A434FF0E0235A6131
:1033000000229A611A46126942F001021A6100BF56
:103310004FF0E022106900F001021AB100F480328F
:10332000002AF5D04FF0E022126922F001024FF09E
:10333000E0231A6100229A61704701461A4A1288F6
:103340004A434FF0E0235A6100229A611A461269FB
:1033500042F001021A6100BF4FF0E022106900F054
:1033600001021AB100F48032002AF5D04FF0E022B9
:10337000126922F001024FF0E0231A6100229A61E3
:10338000704730B50446002505E04FF47A70FFF72A
:10339000D4FF681CC5B2A542F7DB30BD0000002099
:1033A00000127A00540000205600002070B5044638
:1033B0000D460A2C16D10D217748FFF7B9FE00BF44
:1033C0007548008800F080000028F9D00A21724872
:1033D000FFF7AEFE00BF7048008800F080000028B4
:1033E000F9D00AE0E1B26C48FFF7A2FE00BF6A48DC
:1033F000008800F080000028F9D0204670BD08B594
:1034000025208DF8000003208DF801008DF80200C2
:1034100001208DF803006846FEF757FA08BD10B585
:1034200086B00446012144F20500FEF7D3FD4FF4B7
:103430000070ADF8140003208DF8160018208DF8E8
:10344000170005A95548FEF709FB4FF48060ADF859
:10345000140004208DF8170005A95048FEF7FEFA65
:1034600001940020ADF80800ADF80A00ADF80C009A
:10347000ADF810000C20ADF80E0001A94648FFF78A
:103480005EFDFFF7BCFF012240F225514248FFF7E5
:10349000EEFD01214048FFF7DEFD06B010BD70B51E
:1034A00004460D460BE000BF3B48008800F040009A
:1034B0000028F9D014F8011B3748FFF739FE281E01
:1034C000A5F10101CDB2EED170BD10B540F225518C
:1034D0003148FFF7B1FE00285DD000203049086078
:1034E0002D48FFF729FEC4B22E480078C8B9552CE4
:1034F00010D12D480078401C2B49087008460078F0
:1035000002280ED1002008700120264908702749A2
:10351000087006E0002023490870244908702249F9
:10352000087020480078B0B32148204909784454F5
:103530001E480078022813D11D481C490978405CB8
:103540001C49087008460078022803DB084600780A
:10355000082805DD0220174908700020114908706D
:1035600012480078401C114908700846017811483B
:103570000078801C81420ED10F48007840B90120AC
:103580000D4908700948027809490C4802F098F979
:1035900000200449087010BD0038014000080140B7
:1035A000A4812142590000205A0000205C00002024
:1035B000900100205B000020580000202002002025
:1035C00008B501210320FEF712FD01210520FEF7B9
:1035D00001FD01210920FEF7FDFC0120ADF80000EE
:1035E00018208DF8030003208DF802006946F94881
:1035F000FEF734FA0220ADF8000018208DF8030021
:1036000003208DF802006946F248FEF727FA4020B1
:10361000ADF8000018208DF8030003208DF802009B
:103620006946ED48FEF71AFA8020ADF80000182030
:103630008DF8030003208DF802006946E648FEF786
:103640000DFA0120ADF8000010208DF803000320D2
:103650008DF802006946E048FEF700FA0220ADF856
:10366000000010208DF8030003208DF80200694649
:10367000D948FEF7F3F91020ADF800008DF80300EB
:1036800003208DF802006946D348FEF7E7F92020B1
:10369000ADF8000010208DF8030003208DF8020023
:1036A0006946CD48FEF7DAF908BDFEB505460F4676
:1036B000012401E0601C84B2C8480068B0FBF4F04B
:1036C000B0FBF5F0B0F5803FF4D2C4480068B0FB21
:1036D000F4F0B0FBF5F086B2701EC149088080B2EC
:1036E000ADF80400601E80B2ADF800000020ADF817
:1036F0000600ADF8020069464FF08040FEF7A2FDDB
:103700008021C805FFF785FB20214806FFF76FFBE6
:10371000FEBD2DE9F04188B080460C4615461E4698
:103720000E9FADF818800020ADF81400ADF81A0017
:10373000ADF8160005A9AB48FEF784FD6020ADF892
:1037400004000120ADF806000220ADF80C00A648E8
:1037500004600120A5490860ADF80A4001A9A1480C
:10376000FEF7ADFD00219F48FFF7F8F9A04805607E
:103770000120A0490860ADF80A5001A99948FEF758
:10378000E0FD00219748FFF7F2F99B480660012011
:103790009A490860ADF80A6001A99248FEF71EFE3A
:1037A00000219048FFF7F0F99548076001209549FE
:1037B0000860ADF80A7001A98A48FEF75AFE002198
:1037C0008848FFF7EAF910218648FFF7D1F807216A
:1037D0008448FFF715FB002201218248FFF7A9F872
:1037E00001221E217F48FFF7A4F84FF48060FEF706
:1037F00067F81D208DF8000003208DF801008DF87A
:10380000020001208DF803006846FEF75EF808B05C
:10381000BDE8F0812DE9F84F05460F4614461E46D7
:10382000DDE90B9ADDF82880774805807748046049
:103830004B46424631462046CDF800A0FFF769FFCF
:1038400001216848FFF75AF801216648FFF730FB6D
:10385000012211466348FFF76CF839462846FFF706
:1038600024FF01218807FFF749F8BDE8F88F3EB52E
:10387000044667480078A04247D00CBB64480078F3
:10388000F0B16348047001215648FFF711FB002195
:103890004FF08040FFF732F800215248FFF72EF832
:1038A000002201214F48FFF744F8012000900190C9
:1038B000034602905448028832210088FFF7AAFF8D
:1038C000534804705348007801287DD1012C1DD144
:1038D00001214448FFF7ECFA0021A007FFF70EF89A
:1038E00000214048FFF70AF8002201213D48FFF778
:1038F00020F801200221CDE9000103460290424850
:10390000028832210088FFF785FF13E2022C1DD1C7
:1039100001213448FFF7CCFA00216007FEF7EEFFE3
:1039200000213048FEF7EAFF002201212D48FFF771
:1039300000F80220012100910B46CDE90110324828
:10394000028832210088FFF765FFF3E1032C1ED1C6
:1039500001212448FFF7ACFA00214FF08040FEF728
:10396000CDFF00211F48FEF7C9FF002201211D489D
:10397000FEF7DFFF01200421CDE90001034602909C
:103980002148028832210088FFF744FFD2E1042C4D
:10399000BBD101211348FFF78BFA00212007FEF766
:1039A000ADFF00210F48FEF7A9FF002201210D48BD
:1039B000FEF7BFFF0420012100910B46CDE9011065
:1039C00011480288322100E026E00088FFF722FF3C
:1039D000B0E10000000C01400008014000000020A0
:1039E00074000020000400406400002078000020E3
:1039F000680000207C0000206C0000208000002077
:103A00007000002084000020AC000020880000200E
:103A1000A9000020AA000020FE48007802287CD1DE
:103A2000012C1DD10121FC48FFF742FA0021A0071B
:103A3000FEF764FF0021F848FEF760FF0022012135
:103A4000F548FEF776FF0220012100910B46CDE9F3
:103A50000110F248028832210088FFF7DBFE69E19D
:103A6000022C1CD10121EC48FFF722FA002160074B
:103A7000FEF744FF0021E848FEF740FF0022012145
:103A8000E548FEF756FF01200090019002230290C6
:103A9000E248028832210088FFF7BCFE4AE1032C8D
:103AA0001ED10121DC48FFF703FA00214FF08040CE
:103AB000FEF724FF0021D848FEF720FF0022012155
:103AC000D548FEF736FF0420012100910B46CDE9D1
:103AD0000110D248028832210088FFF79BFE29E1BD
:103AE000042CBCD10121CC48FFF7E2F900212007CA
:103AF000FEF704FF0021C848FEF700FF0022012165
:103B0000C548FEF716FF01200090019004230290A3
:103B1000C24802883221008800E002E0FFF77AFE06
:103B200008E1BC48007803287ED1012C1DD1012179
:103B3000B948FFF7BDF90021A007FEF7DFFE00211D
:103B4000B548FEF7DBFE00220121B348FEF7F1FE87
:103B500001200222CDE9002003460290AF480288EE
:103B600032210088FFF756FEE4E0022C1DD101212E
:103B7000A948FFF79DF900216007FEF7BFFE00216D
:103B8000A548FEF7BBFE00220121A348FEF7D1FEA7
:103B900001200221CDE90001034602909F480288DE
:103BA00032210088FFF736FEC4E0032C1ED101212C
:103BB0009948FFF77DF900214FF08040FEF79EFE07
:103BC00000219548FEF79AFE002201219248FEF757
:103BD000B0FE01200422CDE90020034602908F4868
:103BE000028832210088FFF715FEA3E0042C97D14C
:103BF00001218948FFF75CF900212007FEF77EFECE
:103C000000218548FEF77AFE002201218248FEF756
:103C100090FE01200421CDE90001034602907F4877
:103C200002883221008800E002E0FFF7F3FD81E026
:103C30007848007804287DD1012C1CD101217648D8
:103C4000FFF736F90021A007FEF758FE0021724861
:103C5000FEF754FE002201216F48FEF76AFE0120A4
:103C600000900190022302906C4802883221008863
:103C7000FFF7D0FD5EE0022C1DD101216648FFF761
:103C800017F900216007FEF739FE00216248FEF7B0
:103C900035FE002201216048FEF74BFE0120022282
:103CA000CDE90020034602905C480288322100885A
:103CB000FFF7B0FD3EE0032C1DD101215648FFF770
:103CC000F7F800214FF08040FEF718FE002152481F
:103CD000FEF714FE002201214F48FEF72AFE0120C4
:103CE00000900190042302904C4802883221008801
:103CF000FFF790FD1EE0042C1CD101214648FFF780
:103D0000D7F800212007FEF7F9FD00214248FEF711
:103D1000F5FD002201214048FEF70BFE01200422A0
:103D2000CDE90020034602903C48028832210088F9
:103D3000FFF770FD3EBD2DE9F04706460F46904661
:103D40009946DDE908A5142002F008FA0446268009
:103D50006780A4F80480A4F80690A4F808A0287846
:103D6000A0726878E072A8782073E87860732C48B5
:103D7000006820B92A4804602A48046004E0294801
:103D80000068046127480460BDE8F0872DE9F05F12
:103D90000746884691469A46DDE90AB6142002F0A5
:103DA000DDF90446142002F0D9F905462780A4F86D
:103DB0000280A4F80490A4F806A0A4F808B0307813
:103DC000A0727078E072B0782073F0786073144855
:103DD0000068008828801248006840886880104881
:103DE00000688088A8800E480068C088E8800C4879
:103DF0000068008928810A480068807AA87208480B
:103E00000068C07AE87206480068007B287304489E
:103E1000006809E0AA00002000040040AC00002077
:103E20009C000020A0000020407B6873FE480068D2
:103E3000006928612561FC48006802F067F9FA48CA
:103E40000460BDE8F09F10B5F748006800B910BDE8
:103E5000F548046800680069F3490860204602F0EC
:103E600055F900BFF3E72DE9FE4305460E46174618
:103E70009846DDE90A94ED480078012837D120788A
:103E800020B90121EA48FDF798FE03E00121E84846
:103E9000FDF791FE607820B90221E548FDF78DFE1F
:103EA00003E00221E248FDF786FEA07820B9102148
:103EB000DF48FDF782FE03E01021DD48FDF77BFEC1
:103EC000E07820B92021DA48FDF777FE03E02021D1
:103ED000D748FDF770FE33462A46322128468DE842
:103EE0008003FFF797FC0020D049087007E04346A5
:103EF0003A4631462846CDE90094FFF71CFFBDE85D
:103F0000FE832DE9F04F85B083460D46164699464F
:103F1000DDE90EA4584601F097FEC64AC64BCDE92E
:103F2000000101F019FE07460022C44B01F0A2FD7A
:103F3000CDE9020101F0DBFE0490BC4800780128C5
:103F400040D1207820B90121B948FDF736FE03E0C1
:103F50000121B748FDF72FFE607820B90221B4484F
:103F6000FDF72BFE03E00221B148FDF724FEA07807
:103F700020B91021AE48FDF720FE03E01021AC4827
:103F8000FDF719FEE07820B92021A948FDF715FEBC
:103F900003E02021A648FDF70EFE049801F07AFE0A
:103FA00087B2049801F076FE1FFA80F82B463A4655
:103FB000322140468DE84006FFF72CFC00209B494B
:103FC00008700BE0049801F065FE87B24B4632465C
:103FD00029463846CDE900A4FFF7ADFE05B0BDE89F
:103FE000F08F2DE9FC4704460D4616461F46DDE9D5
:103FF0000A89C4EB041101EB41014FF6FF7202EA9A
:10400000C1003B4632462946CDE90089FFF779FFDA
:10401000BDE8FC873EB5044600208DF8080001206D
:104020008DF809008DF80A0000208DF80B000120A2
:104030008349087002A801210B460A46CDE9001009
:104040002046FFF7CEFF3EBD3EB5044601208DF869
:10405000080000208DF809008DF80A0001208DF875
:104060000B0004207649087002A801210B460A467D
:10407000CDE900102046FFF7B4FF3EBD3EB5044633
:1040800000208DF808008DF8090001208DF80A0045
:104090008DF80B0002206A49087002A801210B4626
:1040A0000A46CDE900102046FFF79BFF3EBD3EB516
:1040B000044601208DF808008DF8090000208DF8D5
:1040C0000A008DF80B0003205D49087002A8012149
:1040D0000B460A46CDE900102046FFF782FF3EBDA1
:1040E0003EB5044600208DF8080001208DF8090037
:1040F0008DF80A0000208DF80B000B205049087045
:1041000002A84FF6FF7101230A46CDE900101946B7
:104110002046FFF766FF3EBD3EB5044600208DF801
:10412000080001208DF809008DF80A0000208DF8A4
:104130000B000C204249087002A801214FF6FF73C2
:104140000A46CDE9001019462046FFF74AFF3EBD5A
:104150003EB5044601208DF8080000208DF80900C6
:104160008DF80A0001208DF80B000B2034490870EF
:1041700002A84FF6FF7101230A46CDE90010194647
:104180002046FFF72EFF3EBD3EB5044601208DF8C8
:10419000080000208DF809008DF80A0001208DF834
:1041A0000B000C202649087002A801214FF6FF736E
:1041B0000A46CDE9001019462046FFF712FF3EBD22
:1041C0003EB5044600208DF8080001208DF8090056
:1041D0008DF80A0000208DF80B00012018490870A6
:1041E00002A801210B460A46CDE900102046FFF740
:1041F00088FE3EBD3EB5044601208DF80800002033
:104200008DF809008DF80A0001208DF80B000420BC
:104210000B49087002A801210B460A46CDE900109F
:104220002046FFF76EFE3EBD9C000020A800002047
:1042300000080140CDCCCCCCCCCCFC3F00003040C1
:10424000AA0000203EB5044600208DF808008DF835
:10425000090001208DF80A008DF80B000220FA49B0
:10426000087002A801210B460A46CDE9001020463D
:10427000FFF747FE3EBD3EB5044601208DF808001D
:104280008DF8090000208DF80A008DF80B0003203E
:10429000ED49087002A801210B460A46CDE900103D
:1042A0002046FFF72EFE3EBD3EB5044601208DF8A8
:1042B00008008DF809008DF80A008DF80B00052024
:1042C000E149087002A80121CDE90010C4EB0411F6
:1042D0004FF6FF7202EAC10001231A461946FFF7A2
:1042E00010FE3EBD3EB5044600208DF808008DF856
:1042F00009008DF80A008DF80B000620D2490870DD
:1043000002A80121CDE90010C4EB04114FF6FF72A1
:1043100002EAC10001231A461946FFF7F2FD3EBD2D
:104320003EB5044601208DF808008DF809008DF88F
:104330000A008DF80B000520C349087002A801216E
:104340000B460A46CDE900102046FFF7DAFD3EBDD8
:104350003EB5044600208DF808008DF809008DF860
:104360000A008DF80B000620B749087002A8012149
:104370000B460A46CDE900102046FFF7C2FD3EBDC0
:10438000B24800787047B2480088B249096808808E
:10439000B1480088AF4909684880AF488088AD4976
:1043A00009688880AC480089AA490968C880AA4879
:1043B0008089A84909680881A7480079A549096842
:1043C000C872A548007AA34909680873A248007B0F
:1043D000A049096848739F480068704710B501E01C
:1043E000FFF731FD9D4800680028F9D10120974969
:1043F000087010BD10B501219948FEF759FD002144
:104400004FF08040FEF77AFA00219548FEF776FAE1
:10441000002201219248FEF78CFAFFF7DFFF10BD62
:104420000EB58B480068401E8949086001218C4800
:10443000FEF72DFD002873D001218948FEF738FDD5
:1044400000214FF08040FEF759FA00218448FEF722
:1044500055FA002201218248FEF76BFA7A4800786B
:10446000012844D17F48007800280ED07D4800788C
:1044700001280BD10221CDE90001034602907A48C0
:10448000028832210088FFF7C5F920E175480078DD
:1044900002280BD1012100910B46CDE90110724891
:1044A000028832210088FFF7B5F910E16D480078E5
:1044B00003280CD101200421CDE90001034602901C
:1044C0006948028832210088FFF7A4F9FFE06548B7
:1044D00000780428D9D1012100910B46CDE90110C3
:1044E0006148028832210088FFF794F9EFE05648CE
:1044F0000078022846D15B4800780028C5D059488A
:10450000007801280DD10220012100910B46CDE950
:1045100001105548028832210088FFF77BF9D6E068
:104520002BE15048007802280BD101200090019027
:10453000022302904C48028832210088FFF76AF972
:10454000C5E04848007803280CD1042001210091DF
:104550000B46CDE901104448028832210088FFF75C
:1045600059F9B4E03F48007804288ED1012000902A
:104570000190042302903C48028832210088FFF712
:1045800049F9A4E030480078032846D1354800783E
:1045900000288AD03348007801280BD10222CDE9C7
:1045A0000020034602903048028832210088FFF73D
:1045B00031F98CE02B48007802280CD1012002212F
:1045C000CDE9000103460290274802883221008885
:1045D000FFF720F97BE02348007803280CD1012065
:1045E0000422CDE90020034602901F4802883221B0
:1045F0000088FFF70FF96AE01A480078042866D1AE
:1046000001200421CDE900010346029016480288EA
:1046100032210088FFF7FEF859E00B4800780428A3
:1046200055D11048007870B10E48007801281DD18E
:1046300000900190022302900B48028832210088EA
:10464000FFF7E8F843E042E0AA000020A8000020BD
:1046500088000020A40000208C0000209C00002086
:1046600000040040A9000020AC000020734800783E
:1046700002280CD101200222CDE90020034602903D
:104680006F48028832210088FFF7C4F81FE06B48AA
:10469000007803280BD101200090019004230290A0
:1046A0006748028832210088FFF7B4F80FE06348BA
:1046B000007804280BD101200422CDE90020034614
:1046C00002905F48028832210088FFF7A3F85D4816
:1046D000006878B35B480068807A20B901215A48A5
:1046E000FDF76BFA03E001215748FDF764FA5548DE
:1046F0000068C07A20B902215348FDF75EFA03E052
:1047000002215148FDF757FA4E480068007B20B956
:1047100010214D48FDF751FA03E010214A48FDF7FA
:104720004AFA48480068407B28B920214648FDF7EE
:1047300044FA04E01EE020214348FDF73CFA4148DA
:10474000006800893F490968C9883E4A1268928812
:10475000CDE9002102903B4909684B883949096835
:104760000A883849096808883221FFF753F8FFF7AB
:104770006AFB02E001203549087002213448FEF747
:1047800086FB90B102213248FEF792FB3148008847
:10479000314A1288521C504381B22D48FEF746FB25
:1047A0002D480068401C2C49086004212848FEF769
:1047B0006EFB90B104212648FEF77AFB274800885B
:1047C000274A1288521C504381B22148FEF730FB21
:1047D00023480068401C2249086008211C48FEF755
:1047E00056FB90B108211A48FEF762FB1D4800886D
:1047F0001D4A1288521C504381B21548FEF71AFB1D
:1048000019480068401C1849086010211048FEF73C
:104810003EFB90B110210E48FEF74AFB134800887A
:10482000134A1288521C504381B20948FEF704FB18
:104830000F480068401C0E4908600EBDA90000200A
:10484000AC0000209C00002000080140A8000020CF
:104850000004004064000020780000206800002070
:104860007C0000206C0000208000002070000020F0
:104870008400002008B501214420FDF7ABFB102087
:10488000ADF8000048208DF8030069462348FDF785
:10489000E5F80120ADF8000028208DF803006946F6
:1048A0001F48FDF7DBF808BD10B5044614B1012020
:1048B0001C4908701B480078F8B110211748FDF713
:1048C00060F928B101211648FDF75BF9012814D1E0
:1048D0000A20FEF732FD00201249087010210F480F
:1048E000FDF74FF908B9012010BD01210C48FDF773
:1048F00048F901280FD10220F6E710210748FDF7FB
:1049000040F9012807D101210548FDF73AF910B90E
:104910000120044908700020E6E70000001801406B
:1049200000080140AE00002008B501214820FDF735
:1049300051FB4FF40070ADF8000010208DF803001B
:1049400003208DF8020069461348FDF787F84FF4FD
:1049500000711148FDF72FF92020ADF800006946DD
:104960000E48FDF77BF820210C48FDF724F908BD1F
:1049700008B501218020FDF72DFB0220ADF80000D5
:1049800010208DF8030003208DF8020069460448CA
:10499000FDF764F808BD0000000C0140001801405C
:1049A000001C014070B506460D4614461F2E01DC62
:1049B000002C00DC70BD55208B4948700870082021
:1049C00088700320C870012008714C712012887112
:1049D0000846C6710D72281248720A218248FEF7F5
:1049E0005EFD00BFE6E72DE9F04106460C4617469E
:1049F0004FF007080025012C03DB202C01DC002FE1
:104A000001DCBDE8F081552077494870087004EB5F
:104A10004400401D88700320C870084604714F711F
:104A20003812887100251CE016F825204046411CEC
:104A300001F0FF086C490A5406EB85008278404675
:104A4000411C01F0FF0868490A5406EB85004088C4
:104A500002124046411C01F0FF0863490A54681CD9
:104A6000C5B2A542E0DB60488078801CC1B25E48D8
:104A7000FEF715FD00BFC4E70FB4F8B504460725DF
:104A8000002708A80090012C01DB202C02DDF8BCD7
:104A90005DF814FB552054494870087004EB44003D
:104AA000401D88700320C87008460471BDF81C00C2
:104AB0004871BDF81C000012887100271BE00098A7
:104AC00030F8041B8EB200902846691CCDB24649CE
:104AD0000E54009830F8041B8EB200902846691CD2
:104AE000CDB241490E5432122846691CCDB23E491E
:104AF0000A54781CC7B2A742E1DB002000903A4874
:104B00008078801CC1B23848FEF7C9FC00BFBEE700
:104B100070B505460C46552033494870087005208D
:104B200088700620C870084605714C712012887183
:104B300007212D48FEF7B3FC70BD10B555202A495A
:104B400008704870022088700720C8700421264829
:104B5000FEF7A5FC10BD70B505460C465520224950
:104B600048700870052088700B20C87008460571D1
:104B70004C712012887107211B48FEF790FC70BD14
:104B800010B504462146FF20FFF7E5FF10BD10B524
:104B90005520154908704870022088700F20C87091
:104BA00004211148FEF77BFC10BD10480078D0B1FD
:104BB00000200E4908700E48C07808280AD00F2837
:104BC0000CD10B4800790A49497940EA012009498A
:104BD000088007E001200849087003E0002006492A
:104BE000087000BF00BF7047A001002058000020DF
:104BF00020020020B0000020B200002010B586B0D6
:104C000004464FF4A060FCF75BFE01210420FDF791
:104C1000E1F901210846FDF7DDF901214804FDF71E
:104C2000E6F918208DF817000420ADF814000120D3
:104C30008DF8160005A94D48FCF710FF04208DF8EB
:104C400017000820ADF8140005A94848FCF706FF36
:104C5000012240F225514648FEF709FA4FF416505A
:104C600001900020ADF810000C20ADF80E000020DF
:104C7000ADF80C00ADF80A00ADF8080001A93C48F9
:104C8000FEF75DF901213A48FEF7E5F926208DF897
:104C9000000001208DF803008DF8010003208DF83D
:104CA00002006846FCF711FE06B010BD10B540F2D8
:104CB00025512F48FEF7C0FA012836D12C48FEF7BF
:104CC0003BFAC4B22B4801780078401C294A107086
:104CD000294844541046007807280FD12648807987
:104CE00031280BD124484079332807D12248007954
:104CF00020B9002021490870114608700D2C14D1EC
:104D000001201E4908701C4A1DA1224801F0F8F834
:104D1000204800F094F8FF2000F0A7F880211E48FA
:104D2000FEF781FA00201349087040F2255110481F
:104D3000FEF7ACFA10BD70B5002513E000240DE0BD
:104D40001648015D0A48FEF7F3F900BF4021084804
:104D5000FEF75CFA0128F9D1601CC4B2092CEFDB24
:104D6000681CC5B2032DE9DB70BD000000080140DE
:104D700000440040B400002030020020B3000020B6
:104D800070616765302E74322E7478743D22252E42
:104D9000377322001001002000480040B5000020B9
:104DA00010B586B0044601210820FDF713F9012152
:104DB0008804FDF71CF94FF48060ADF8140003205F
:104DC0008DF8160018208DF8170005A94148FCF74A
:104DD00045FE4FF40060ADF8140004208DF8170074
:104DE00005A93C48FCF73AFE27208DF80000032077
:104DF0008DF801008DF8020001208DF8030068464F
:104E0000FCF763FD01940020ADF80800ADF80A003E
:104E1000ADF80C00ADF810000C20ADF80E0001A9A3
:104E20002D48FEF78CF8012240F225512A48FEF762
:104E30001EF901212848FEF70EF906B010BD70B525
:104E40000446002510E0605D68B1615D2248FEF710
:104E50006FF900BF80212048FEF7D8F90028F9D06B
:104E6000681CC5B200E070BDEDE770B504460025D2
:104E70000FE05CB121461848FEF75AF900BF8021C7
:104E80001548FEF7C3F90028F9D000E070BD681C92
:104E9000C5B2032DEDDB00BFF8E710B5C820FEF763
:104EA0004CFAFF20FFF7E1FFC820FEF746FA10BDDD
:104EB00010B540F225510848FEF7BEF940B106484A
:104EC000FEF73AF9C4B240F225510348FEF7DEF985
:104ED00010BD0000000C01400048004008B5012151
:104EE0002120FDF777F801214120FDF773F801211A
:104EF00040F20110FDF76EF88020ADF80000282088
:104F00008DF8030003208DF802006946FE48FCF787
:104F1000A5FD4FF48070ADF8000028208DF8030047
:104F200003208DF802006946F748FCF797FD4FF41F
:104F30000070ADF8000028208DF8030003208DF8E4
:104F400002006946F048FCF789FD4FF48060ADF837
:104F5000000028208DF8030003208DF80200694628
:104F6000E948FCF77BFD4FF40060ADF80000282015
:104F70008DF8030003208DF802006946E248FCF733
:104F80006DFD4FF48050ADF8000028208DF803002F
:104F900003208DF802006946DB48FCF75FFD4FF403
:104FA0000050ADF8000028208DF8030003208DF894
:104FB00002006946D448FCF751FD4FF48040ADF83B
:104FC000000028208DF8030003208DF802006946B8
:104FD000CD48FCF743FD4FF40040ADF80000282019
:104FE0008DF8030003208DF802006946C648FCF7DF
:104FF00035FD8020ADF8000028208DF80300032047
:105000008DF802006946C148FCF728FD0420ADF880
:10501000000028208DF8030003208DF80200694667
:10502000BA48FCF71BFD0820ADF8000028208DF8D9
:10503000030003208DF802006946B448FCF70EFD1A
:105040001020ADF8000028208DF8030003208DF813
:1050500002006946AD48FCF701FD2020ADF80000D4
:1050600028208DF8030003208DF802006946A74828
:10507000FCF7F4FC4020ADF8000028208DF8030078
:1050800003208DF802006946A048FCF7E7FC4FF4C6
:105090008070ADF8000028208DF8030003208DF803
:1050A000020069469A48FCF7D9FC4FF40070ADF84D
:1050B000000028208DF8030003208DF802006946C7
:1050C0009348FCF7CBFC4FF48060ADF8000028203B
:1050D0008DF8030003208DF8020069468C48FCF728
:1050E000BDFC4FF40060ADF8000028208DF80300EF
:1050F00003208DF8020069468548FCF7AFFC4FF4A9
:105100008050ADF8000028208DF8030003208DF8B2
:10511000020069467E48FCF7A1FC08BD08B50121E4
:105120004820FCF757FF4FF40070ADF80000102046
:105130008DF8030003208DF8020069467548FCF7DE
:105140008DFC2020ADF8000010208DF80300032016
:105150008DF8020069466C48FCF780FC08BD70B50C
:1051600005460C4625BB012C04D180216648FCF77E
:1051700008FD70BD022C04D1E1016348FCF701FD7C
:10518000F7E7032C05D14FF400715F48FCF7F9FCF9
:10519000EFE7042C04D121025B48FCF7F2FCE8E7BE
:1051A000052C78D14FF400615748FCF7EAFCE0E7A2
:1051B000012D23D1012C04D121035348FCF7E1FC3C
:1051C000D7E7022C04D121034F48FCF7DAFCD0E7E3
:1051D000032C05D14FF480414B48FCF7D2FCC8E7C3
:1051E000042C04D161034848FCF7CBFCC1E7052C33
:1051F00051D180214548FCF7C4FCBAE7022D22D1E9
:10520000012C04D104214148FCF7BBFCB1E7022C7E
:1052100004D108213D48FCF7B4FCAAE7032C04D1D3
:1052200010213A48FCF7ADFCA3E7042C04D120215F
:105230003648FCF7A6FC9CE7052C2CD140213348CE
:10524000FCF79FFC95E7032D25D1012C04D1210209
:105250002F48FCF796FC8CE7022C04D121022C4845
:10526000FCF78FFC85E7032C05D14FF480612848BB
:10527000FCF787FC7DE7042C05D161022448FCF78C
:1052800080FC76E707E0052C05D14FF480512048DB
:10529000FCF777FC6DE700206BE77FB50124012167
:1052A0000420FCF7A4FE01E0601C84B21A480068E8
:1052B000B0FBF4F09621B0FBF1F0B0F5803FF3D2F3
:1052C00015480068B0FBF4F0B0FBF1F085B2ADF822
:1052D0000850ADF804400020ADF80A00ADF8060013
:1052E00001A90E48FCF7AEFF01210C48FDF7E0FDD7
:1052F000012211460948FDF71CFB4FF4A060FCF7A2
:10530000DFFA1E200CE000000018014000200140E0
:1053100000140140000C0140000000200008004083
:105320008DF8000003208DF801008DF802000120A7
:105330008DF803006846FCF7C8FA7FBD2DE9F041FF
:1053400004460D4617461E46DDF8188000205E49CB
:1053500008605E49086001205D4908605D4804609E
:105360005D4805605D4807605D48C0F800805D48A5
:105370000660FFF792FF01215B48FDF7BFFABDE829
:10538000F0815348006808B9012070470020FCE70D
:1053900070B501215448FDF77AFD002877D001212E
:1053A0005148FDF785FD01214D480068FFF7D7FE04
:1053B00028B902214A480068FFF7D1FE08B101264A
:1053C00000E00026042146480068FFF7C8FE28B91F
:1053D000052143480068FFF7C2FE08B1012000E044
:1053E0000020341A002C06DD01213D480068FFF73B
:1053F000B6FE00B10224002C07DA04213848006808
:10540000FFF7ADFE08B16FF00104012132480068DA
:10541000FFF7A5FE064605212F480068FFF79FFE0F
:10542000301A0BD101212C480068FFF798FE28B1F3
:10543000052129480068FFF792FE08B9012000E025
:10544000002005462548016823480068FFF787FECD
:10545000F0B12448006800B1D5B91B480068B0B964
:105460001A480068401C1949086001201649086064
:105470001648006817490968884223DBFEF7BAFF1F
:1054800000201349086000211748FDF737FA19E09A
:1054900000200D4908600CB9FEF7E9F9601C10B94D
:1054A0000120FEF7E4F9012C02D10220FEF7DFF91A
:1054B000A01C10B90320FEF7DAF9022C02D1042057
:1054C000FEF7D5F970BD0000C0000020C400002028
:1054D000C8000020CC000020D0000020D400002014
:1054E000D8000020DC0000200008004010B586B085
:1054F000044601210805FCF77AFD01213020FCF764
:1055000069FD4FF48050ADF8040001208DF80600CD
:1055100018208DF8070001A96048FCF79FFA0420C5
:10552000ADF804008DF8070001A95D48FCF796FA74
:1055300002940020ADF80C00ADF80E00ADF810009C
:10554000ADF814000C20ADF8120002A95548FDF783
:10555000F6FC012240F225515248FDF788FD012159
:105560005048FDF778FD35208DF8000001208DF8BA
:10557000010003208DF8020001208DF80300684629
:10558000FCF7A3F906B010BD70B505460E46002421
:1055900000BF0DE0295D4348FDF7CAFD00BF40F2A2
:1055A00026614048FDF732FE0028F8D0601CC4B2E6
:1055B000B442EFDB70BD70B505460C462846FFF7D8
:1055C00095FF4FF4FA70FDF7B8FE012C0DD10321C1
:1055D0003548FFF7D9FF6420FDF7AFFE03213348BC
:1055E000FFF7D2FF6420FDF7A8FE70BD30490A78AE
:1055F0000978491C2E4B19702E4988540978552971
:1056000003D000211A4611707047294909780B29E7
:1056100000DAF9E727494978512904D052290AD0FC
:1056200053291BD10FE02449224A921C13680B60B6
:1056300052684A6012E021491E4A921C13680B60AE
:1056400052684A600AE01E491A4A921C13680B60AD
:1056500052684A6001211B4A116000BF00BF00214F
:10566000134A117000BFCFE710B50020164908603B
:1056700040F225510B48FDF7DFFD012809D109490A
:105680008988C8B2FFF7B2FF40F225510548FDF7FF
:10569000FDFD01200C49086010BD00000010014014
:1056A0000014014000500040E3000020E000002012
:1056B000F400002050020020240000202C000020D4
:1056C00034000020F00000209401234200B587B090
:1056D00001211020FCF77EFC0121C804FCF787FCA7
:1056E0004FF48060ADF8180018208DF81B000320DF
:1056F0008DF81A0006A93948FCF7B0F94FF400609C
:10570000ADF8180004208DF81B0006A93348FCF7FB
:10571000A5F94FF4165002900020ADF80C00ADF83A
:105720000E00ADF81000ADF814000C20ADF812001A
:1057300002A92B48FDF703FC34208DF8040000205B
:105740008DF805008DF8060001208DF8070001A8EE
:10575000FCF7BBF8012240F225512148FDF787FCF8
:1057600001211F48FDF777FC07B000BD10B540F2DE
:1057700025511B48FDF760FD012813D11848FDF79E
:10578000DBFCC4B2174801880088401C154A108011
:10579000154844540A2C05D10120144908700020F2
:1057A0001146088040F225510D48FDF76FFD10BDF0
:1057B00010B500240EE024210948FDF7B9FC00BF14
:1057C00040210748FDF722FD0128F9D10A20FDF705
:1057D000B4FD641C032CEEDB10BD00000010014082
:1057E000004C0040F6000020F9000020F8000020E6
:1057F0002DE9FF47044601210820FCF7F8FB2B4860
:10580000006800F021FA0746294A2A4B00F032F9D5
:10581000054600F053FA1FFA80FA04EB84004FF6B5
:10582000FF7101EA4009A9F1010080B2ADF808005A
:10583000AAF1010080B2ADF804000020ADF80A0022
:10584000ADF8060001A91C48FCF7FCFC012211463A
:105850001948FDF76EF84FF48060FCF731F83220FC
:105860008DF8000000208DF8010003208DF8020063
:1058700001208DF803006846FCF727F800200F4947
:10588000087001210C48FDF739F8BDE8FF8710B515
:1058900001210948FDF7FBFA30B101210648FDF767
:1058A00007FB01200549087010BD00000000002022
:1058B0002D431CEBE2361A3F000C00400101002092
:1058C00040EA01039B0703D009E008C9121F08C082
:1058D000042AFAD203E011F8013B00F8013B521E02
:1058E000F9D27047F0B480EA0102D40F4200B2EB63
:1058F000410F02D20246084611464A0042D0C30D6B
:10590000DDB2C1F3C752AD1A202D35DAC1F316014D
:1059100041F4000204B15242C5F1200602FA06F138
:105920002A411044B3EBD05F23D0C4B1012DA0EBCA
:10593000C35009DCF0BC4FF0004202EAC352DBB2B4
:1059400000F5000000F01EBA400000F1807000EB8E
:10595000C350A0F1807040EAD170490009E04908C5
:1059600041EAC071A0EBC35000F50000400800EB15
:10597000C350F0BC00F0FDB96142012202EB4101CD
:10598000001BF6E7F0BC704781F00041AAE780F009
:105990000040A7E780EA010210B502F00043400092
:1059A00022D04A001FD0010E01EB1261C0F3560055
:1059B000C2F3560240F4000042F40002A0FB0220B1
:1059C00000047F39140400D0401C50EA124001D476
:1059D0004000491EC2B20C0604EBD010401C400827
:1059E000802A02D003E0002010BD20F00100002931
:1059F00000DA0020184310BD30B480EA010202F042
:105A0000004530F0004221F0004013D090B1C30DAA
:105A1000D40DC2F31601C0F31600E41A41F40001DC
:105A200040F400027D34914201D3641C00E049003F
:105A3000002C02DA30BC002070474FF40000002335
:105A4000914201D3891A034340084FEA4101F7D13B
:105A500051B1914202D14FF0004105E002D24FF026
:105A6000010101E06FF0010103EBC450284430BC98
:105A700000F07FB92DE9FE4F81EA030404F00044F1
:105A800021F0004100944FF0000B23F0004350EA56
:105A900001045ED052EA03045BD0C3F30A54C1F39D
:105AA0000A552C44A4F2F3340194A0FB0254C1F330
:105AB000130141F48011C3F3130343F4801301FB7A
:105AC000024400FB034E840A970A44EA815447EAE1
:105AD0008357A4FB076802958D0A05FB07854FEAEB
